{
  "_format": "hh-sol-artifact-1",
  "contractName": "OrgContract",
  "sourceName": "contracts/.sol",
  "abi": [
    {
      "inputs": [
        {
          "components": [
            {
              "internalType": "string",
              "name": "fieldname",
              "type": "string"
            },
            {
              "internalType": "string",
              "name": "value",
              "type": "string"
            }
          ],
          "internalType": "struct OrgContract.Ledger_data[]",
          "name": "ledger",
          "type": "tuple[]"
        }
      ],
      "name": "addLedger",
      "outputs": [],
      "stateMutability": "nonpayable",
      "type": "function"
    },
    {
      "inputs": [],
      "name": "getLedger",
      "outputs": [
        {
          "components": [
            {
              "internalType": "string",
              "name": "fieldname",
              "type": "string"
            },
            {
              "internalType": "string",
              "name": "value",
              "type": "string"
            }
          ],
          "internalType": "struct OrgContract.Ledger_data[]",
          "name": "",
          "type": "tuple[]"
        }
      ],
      "stateMutability": "view",
      "type": "function"
    }
  ],
  "bytecode": "0x608060405234801561001057600080fd5b50610c64806100206000396000f3fe608060405234801561001057600080fd5b50600436106100365760003560e01c8063521a3c9a1461003b578063f36f235d14610057575b600080fd5b61005560048036038101906100509190610633565b610075565b005b61005f6101a2565b60405161006c9190610801565b60405180910390f35b60003373ffffffffffffffffffffffffffffffffffffffff1631116100cf576040517f08c379a00000000000000000000000000000000000000000000000000000000081526004016100c690610880565b60405180910390fd5b60005b815181101561019e576000803373ffffffffffffffffffffffffffffffffffffffff1673ffffffffffffffffffffffffffffffffffffffff16815260200190815260200160002082828151811061012c5761012b6108a0565b5b6020026020010151908060018154018082558091505060019003906000526020600020906002020160009091909190915060008201518160000190816101729190610ae5565b5060208201518160010190816101889190610ae5565b505050808061019690610be6565b9150506100d2565b5050565b60606000803373ffffffffffffffffffffffffffffffffffffffff1673ffffffffffffffffffffffffffffffffffffffff168152602001908152602001600020805480602002602001604051908101604052809291908181526020016000905b828210156103585783829060005260206000209060020201604051806040016040529081600082018054610235906108fe565b80601f0160208091040260200160405190810160405280929190818152602001828054610261906108fe565b80156102ae5780601f10610283576101008083540402835291602001916102ae565b820191906000526020600020905b81548152906001019060200180831161029157829003601f168201915b505050505081526020016001820180546102c7906108fe565b80601f01602080910402602001604051908101604052809291908181526020018280546102f3906108fe565b80156103405780601f1061031557610100808354040283529160200191610340565b820191906000526020600020905b81548152906001019060200180831161032357829003601f168201915b50505050508152505081526020019060010190610202565b50505050905090565b6000604051905090565b600080fd5b600080fd5b600080fd5b6000601f19601f8301169050919050565b7f4e487b7100000000000000000000000000000000000000000000000000000000600052604160045260246000fd5b6103c38261037a565b810181811067ffffffffffffffff821117156103e2576103e161038b565b5b80604052505050565b60006103f5610361565b905061040182826103ba565b919050565b600067ffffffffffffffff8211156104215761042061038b565b5b602082029050602081019050919050565b600080fd5b600080fd5b600080fd5b600080fd5b600067ffffffffffffffff8211156104615761046061038b565b5b61046a8261037a565b9050602081019050919050565b82818337600083830152505050565b600061049961049484610446565b6103eb565b9050828152602081018484840111156104b5576104b4610441565b5b6104c0848285610477565b509392505050565b600082601f8301126104dd576104dc610375565b5b81356104ed848260208601610486565b91505092915050565b60006040828403121561050c5761050b610437565b5b61051660406103eb565b9050600082013567ffffffffffffffff8111156105365761053561043c565b5b610542848285016104c8565b600083015250602082013567ffffffffffffffff8111156105665761056561043c565b5b610572848285016104c8565b60208301525092915050565b600061059161058c84610406565b6103eb565b905080838252602082019050602084028301858111156105b4576105b3610432565b5b835b818110156105fb57803567ffffffffffffffff8111156105d9576105d8610375565b5b8086016105e689826104f6565b855260208501945050506020810190506105b6565b5050509392505050565b600082601f83011261061a57610619610375565b5b813561062a84826020860161057e565b91505092915050565b6000602082840312156106495761064861036b565b5b600082013567ffffffffffffffff81111561066757610666610370565b5b61067384828501610605565b91505092915050565b600081519050919050565b600082825260208201905092915050565b6000819050602082019050919050565b600081519050919050565b600082825260208201905092915050565b60005b838110156106e25780820151818401526020810190506106c7565b60008484015250505050565b60006106f9826106a8565b61070381856106b3565b93506107138185602086016106c4565b61071c8161037a565b840191505092915050565b6000604083016000830151848203600086015261074482826106ee565b9150506020830151848203602086015261075e82826106ee565b9150508091505092915050565b60006107778383610727565b905092915050565b6000602082019050919050565b60006107978261067c565b6107a18185610687565b9350836020820285016107b385610698565b8060005b858110156107ef57848403895281516107d0858261076b565b94506107db8361077f565b925060208a019950506001810190506107b7565b50829750879550505050505092915050565b6000602082019050818103600083015261081b818461078c565b905092915050565b600082825260208201905092915050565b7f596f75206d6179206e6f74206861766520656e6f7567682066756e64732e0000600082015250565b600061086a601e83610823565b915061087582610834565b602082019050919050565b600060208201905081810360008301526108998161085d565b9050919050565b7f4e487b7100000000000000000000000000000000000000000000000000000000600052603260045260246000fd5b7f4e487b7100000000000000000000000000000000000000000000000000000000600052602260045260246000fd5b6000600282049050600182168061091657607f821691505b602082108103610929576109286108cf565b5b50919050565b60008190508160005260206000209050919050565b60006020601f8301049050919050565b600082821b905092915050565b6000600883026109917fffffffffffffffffffffffffffffffffffffffffffffffffffffffffffffffff82610954565b61099b8683610954565b95508019841693508086168417925050509392505050565b6000819050919050565b6000819050919050565b60006109e26109dd6109d8846109b3565b6109bd565b6109b3565b9050919050565b6000819050919050565b6109fc836109c7565b610a10610a08826109e9565b848454610961565b825550505050565b600090565b610a25610a18565b610a308184846109f3565b505050565b5b81811015610a5457610a49600082610a1d565b600181019050610a36565b5050565b601f821115610a9957610a6a8161092f565b610a7384610944565b81016020851015610a82578190505b610a96610a8e85610944565b830182610a35565b50505b505050565b600082821c905092915050565b6000610abc60001984600802610a9e565b1980831691505092915050565b6000610ad58383610aab565b9150826002028217905092915050565b610aee826106a8565b67ffffffffffffffff811115610b0757610b0661038b565b5b610b1182546108fe565b610b1c828285610a58565b600060209050601f831160018114610b4f5760008415610b3d578287015190505b610b478582610ac9565b865550610baf565b601f198416610b5d8661092f565b60005b82811015610b8557848901518255600182019150602085019450602081019050610b60565b86831015610ba25784890151610b9e601f891682610aab565b8355505b6001600288020188555050505b505050505050565b7f4e487b7100000000000000000000000000000000000000000000000000000000600052601160045260246000fd5b6000610bf1826109b3565b91507fffffffffffffffffffffffffffffffffffffffffffffffffffffffffffffffff8203610c2357610c22610bb7565b5b60018201905091905056fea26469706673582212206cd2130d7579ef03d9f81687cdb6503e1d3a7bd83e39dcead2d8cf4faf2a97ef64736f6c63430008110033",
  "linkReferences": {},
  "deployedLinkReferences": {}
}